:020000040020DA
:1000000000020020BD052000590520001505200034
:100010006905200079052000890520000000000006
:10002000000000000000000000000000F9042000B3
:100030009905200000000000DD042000A905200033
:100040008D0220008D0220008D0220008D022000F4
:1000500000000000390B20008D0220008D022000DE
:100060008D022000000000000000000000000000E1
:1000700000000000000000008D02200000000000D1
:1000800000000000000000008D0220008D02200012
:100090008D0220008D0220008D0220008D022000A4
:1000A0008D0220008D0220008D0220008D02200094
:1000B0008D0220008D0220008D0220008D02200084
:1000C0008D0220008D0220008D0220008D02200074
:1000D0008D02200000000000000000000000000071
:1000E0000000000000000000000000000000000010
:1000F0008D022000000000008D0220008D022000F3
:1001000000000000000000000000000000000000EF
:1001100000000000000000000000000000000000DF
:1001200000000000000000000000000000000000CF
:1001300000000000000000000000000000000000BF
:1001400000000000000000000000000000000000AF
:10015000000000000000000000000000000000009F
:10016000000000000000000000000000000000008F
:10017000000000000000000000000000000000007F
:10018000000000000000000000000000000000006F
:10019000000000000000000000000000000000005F
:1001A000000000000000000000000000000000004F
:1001B000000000000000000000000000000000003F
:1001C000000000000000000000000000000000002F
:1001D000000000000000000000000000000000001F
:1001E000000000000000000000000000000000000F
:1001F00000000000000000000000000000000000FF
:1002000000000000000000000000000000000000EE
:1002100000000000000000000000000000000000DE
:1002200000000000000000000000000000000000CE
:1002300000000000000000000000000000000000BE
:1002400000000000000000000000000000000000AE
:10025000000000000000000000000000000000009E
:10026000000000000000000000000000000000008E
:10027000000000000000000000000000000000007E
:1002800000000000000000000000000000F08CB939
:1002900000F09DBA7047000070B50C46064600F0AD
:1002A00087FA094B094A1D682C44944202D8084A2F
:1002B000944207D20C234FF0FF35336000F080FAF0
:1002C000284670BD1C60F9E7000200200080002075
:1002D000600A00201946104600F080BA1946104600
:1002E00000F07FBA132303604FF0FF3070471323F1
:1002F00003604FF0FF307047132303604FF0FF306F
:1003000070470023022903608CBF00200120704742
:10031000134910B50C68002094FAA4F18442B1FA94
:1003200081F108BF4FF0FF310E4C0F4B54F82110F4
:1003300018600E4B09681A68A1F1080494420ED0A7
:1003400022B110790A2804BF0B2010710A22012063
:1003500001F8042C31F9021C054A1C60118010BD03
:100360007402002088020020800200207C0200200D
:1003700078020020092930B503791AD9092B14D83D
:1003800042791A4B00F1080453F822507DB12D68D0
:10039000856053F822502C6043F822400123144A10
:1003A0004479A340146823431360017130BD846015
:1003B000F2E7092BF9D945790C4B53F825203AB1CE
:1003C0001468A2420BBF0022246843F82520146061
:1003D000427953F82230002BE7D10123044C03FA71
:1003E00002F2236823EA02032360DEE7880200208A
:1003F0007402002008B5094B1B681A79092A02D932
:100400005B79834205D900F0DEF918B10122044B73
:100410001A6008BDBDE8084000F058B87C02002012
:1004200080020020002408B500F0C2F9084B094AF8
:100430001B88094D1BB242F82340084A2146136825
:100440002868013B1360FFF795FF2C6000F03AF835
:1004500078020020C80200207C02002084020020D4
:1004600013444FF0773223F0030310B51C1F43F8F9
:10047000042C620742BF4FF08832A3F1080443F80E
:10048000082C4FF0807344E902030D4B002244F81E
:100490000C3C0323022044E905320123224644E9AF
:1004A00007300B2342F8201D42F8043D013B032B8B
:1004B000FAD120466FF0020340F8443D10BD00BF62
:1004C0002504200000F078F901DFFEE7024A5368B6
:1004D00043F080535360704700ED00E0EFF3098074
:1004E00020E9F00F40F804ED02490968086000F0C7
:1004F00003F800007C020020FFF70AFF04480068B0
:10050000016801C9B1E8F00F81F3098800470000D4
:100510007C0200200D4B0E4A0E496846904203D8DB
:10052000984201D9002102E009468D4601210420AC
:100530007246024202D1EFF3088001E0EFF3098036
:100540002DE9F00F6B4600F06FF800BF5801002056
:10055000008000200002002008B50249042000F0BD
:100560006DF900BF131D200008B50249062000F0F8
:1005700065F900BF001D200008B50249072000F002
:100580005DF900BFDA1A200008B50249082000F022
:1005900055F900BF1F1D200008B50249092000F0D1
:1005A0004DF900BFEC1A200008B502490A2000F0FE
:1005B00045F900BFFE1A20007047704708B5FFF7E5
:1005C000FBFF6A46114B1249934213D3114A124B57
:1005D00012498B4211D30021114B124A934211D37D
:1005E000FFF7EBFF00F00AF900F072FBBDE80840EE
:1005F00000F056B943F8041BE6E752F8040F43F83D
:10060000040BE6E743F8041BE8E700BF0000002006
:10061000FEE7FEE74C1E20000002002074020020CE
:1006200074020020600A00202DE9F04F9A464A4BE0
:1006300093469A6B8FB003925A6B9F6A0492DA6A60
:10064000044605921A6BDB6B06920793434B884670
:100650001A68434B9A4202D0424800F0D1FBB8F1ED
:10066000000F4ED00025404800F0CAFB2E463F4800
:1006700000F0C6FB39463E4800F04EFB05993D4868
:1006800000F04AFB06993C4800F046FB07993B48BE
:1006900000F042FB3A0403D50399394800F03CFBD3
:1006A0003B0603D50499374800F036FB364800F086
:1006B000A7FB5946354800F02FFBB8F1000F1BD1BE
:1006C000334800F09DFB3146324800F025FB694677
:1006D000314BC91A03D54942304800F01DFB204672
:1006E0008268C36801698C4641698E46AD465146B1
:1006F00091E8F00F4168006801BE2949052000F02B
:100700009DF8D4E9023008902069D4E9066909907F
:10071000606919F4007F0A902248D4E9001208BFEA
:1007200004F12005CDE90C2318BF04F124050B9139
:1007300000F066FB089B0B9900931B48DDE90C2336
:1007400000F0EAFADDE90912CDF8009033461748C7
:1007500000F0E2FA8BE700BF00ED00E000000020AF
:10076000FEE7FEE70C1B2000221B2000E71B2000F9
:10077000F01B2000001C2000101C2000201C20006A
:10078000301C2000401C2000501C2000551C200064
:10079000671C2000981C200058010020C01C20006D
:1007A000ED1C2000511B20006C1B2000A91B200009
:1007B000EFF3108072B6704762B6EFF310807047A7
:1007C00080F310887047EFF30580C0B270470023B4
:1007D0004FF4E1311A46184600F01CB96FF085005D
:1007E000704710B50C460A460146002000F08EF90D
:1007F000204610BD08B5FFF7DBFFFEE708B500F0A7
:10080000F1F80821084800F0C3F90821074800F072
:10081000BFF90821064800F0BBF9BDE808400821EF
:10082000044800F0B5B900BF00B00D4001B00D4064
:1008300002B00D4003B00D407047000008B50C4BEE
:100840000C461A6872B9012203281A6003D1714656
:10085000084800F061FA2146074800F05DFA0748B1
:1008600000F05AFAFFF7A4FFFFF7E6FFFFF7C2FF19
:100870004C030020451D2000491D2000651D20005F
:1008800008B500F003FA034800F046FA00F0E0F97A
:10089000002008BD731D200008B500F06FF9FCE7CB
:1008A0001FB50024FFF784FF0D4B0F221B684FF488
:1008B000807102930B4B019400930B480C2300F0C2
:1008C0001BF80A4B07221B684FF4C061CDE90143B6
:1008D000074B084800930C2300F00EF8FFF7F2FDD9
:1008E0000402002099082000500300200802002084
:1008F00081082000500400200F2A2DE9F74F0546FB
:100900008B4691469A4633D810F003030FBF0B462F
:10091000C3F10403ED18CB1A303B23F003031AF0A4
:10092000080F05EB030419D12D6003E012600432B7
:10093000A242FBD30193FFF73BFF012280462749E8
:10094000019B51F8226017B2AEB10132212AF8D1D1
:100950004046FFF735FF6FF08A073BE02A46E7E79E
:1009600001212046FFF706FD4046FFF729FF31E051
:100970006FF015072EE041F822402A46DDE90C0110
:10098000E780FFF76DFD0E9B154AA3624FF0FF3322
:10099000C4E9073613681AF0010F03F10103206060
:1009A0006562C4F82CB084F805902671C4E902662B
:1009B000C4E90466A6611360D2D10B212046FFF77B
:1009C000D9FC1AF0040FCFD14046FFF7F9FE484694
:1009D000FFF710FD384603B0BDE8F08FC8020020D5
:1009E0008402002008B500F053F90122064B0748A5
:1009F000C3F89820064A1A60596851400142FBD159
:100A0000BDE8084000F01CB900200D4000000101C5
:100A10000101020170B514460E461D46024618B18A
:100A200030490320FFF70AFF1CB101462E4800F0B1
:100A3000DDF8082200212D4800F0D8F82C4A136870
:100A400043F001031360536843F00103536093685C
:100A500043F0010393600022264B1A63C3F8C82FAA
:100A60004FF4DA629A6344B102215A6B61F3C50212
:100A70005A631A6B42F400721A6302215A6B61F3D3
:100A800002025A631A6B1C4942F480721A631A6B91
:100A90006FF345121A63194A136813F4803F184B19
:100AA00008BF1946136803F0070321FA03F371081E
:100AB00001EB8301B1FBF6F10E4B8A095A627022F9
:100AC00001F03F019962DA6214B10E4AC2E90045B1
:100AD00020210D4A002011601A6B42F001021A63B6
:100AE00070BD00BF331D200000900D4001900D40EF
:100AF00028200D4000C000400024F40000200D40DC
:100B00000048E801500A002000E100E008B520B9E3
:100B1000074B0A44914204D108BD06490320FFF760
:100B20008DFE98698006FCD411F8010B1860F1E77E
:100B300000C00040331D200070B50D4C0D4E256CDB
:100B4000ADB26564A369DB060BD515F4D06F1CBF8D
:100B5000FF236360084B1B684BB1BDE87040FFF793
:100B6000B5BC21683368C9B270689847EAE770BDC0
:100B700000C00040500A0020800200207047C0F3EF
:100B80000233013B00F0070000EBC300C0B2704726
:100B9000FF2938B524D0012400F007039C40E54329
:100BA00020F47F6222F00F02D2F810342B40C2F8FA
:100BB0001034D2F820342B40C2F82034FFF7DFFF86
:100BC000094B203043F820100020D2F800340829C7
:100BD0000BBF1C432B40C2F80044C2F8003438BDA0
:100BE0004FF0FF30FBE700BF00400D40431C10B545
:100BF000044603D110490320FFF720FEFFF7BFFF93
:100C0000830003F1402303F55023082AC3F8802012
:100C10001DBF0A4B403143F821001960012324F421
:100C20007F6222F00F02D2F8201404F00704A340E0
:100C30000B43C2F8203410BD331D200000400D408E
:100C400070470023834200D1704700BF0133F9E7AA
:100C50000C4A08B5D2F8FC330B4943F00203C2F842
:100C6000FC33D2F8FC33084683F00203C2F8FC33AD
:100C7000D2F8FC3383F00103C2F8FC33FFF7E1FF45
:100C8000EFE700BF00B00D4020A107007047000053
:100C90000C4B0D4A10B59A60202200210B4C83F8B2
:100CA0002220DA7760180131932980F80023F9D1E6
:100CB0001A6942F010021A615A6942F400725A61CC
:100CC00010BD00BF00ED00E00000200000E100E0EA
:100CD00070B500250C4E0D4CA41BA410A54209D1E3
:100CE000FFF7D6FA00250A4E0A4CA41BA410A54211
:100CF00005D170BD56F8253098470135EEE756F816
:100D0000253098470135F2E7501E2000501E200084
:100D1000501E2000501E20000FB40A4B13B51C6853
:100D200024B1A36913B9204600F022FA05AB049A56
:100D3000A1682046019300F0DFFB02B0BDE810403F
:100D400004B070470C02002070B50E46054618B17D
:100D500083690BB900F00CFAAB69AC6813B928468B
:100D600000F006FA234B9C4217D16C68A3891B073D
:100D70001DD52369DBB1013EA36816F8011F013BB5
:100D8000A360E9B9002B2EDA22460A21284600F09A
:100D90003FF8013011D00A2011E0174B9C4201D1DD
:100DA000AC68E3E7154B9C4208BFEC68DEE72146E0
:100DB000284600F07FF80028DDD04FF0FF3070BDEE
:100DC000002B04DAA2699A4206DC0A2904D02368BF
:100DD0005A1C22601970CFE72246284600F018F806
:100DE0000130C9D1E9E70A2023685A1C2260187033
:100DF000E5E700BFDC1D2000FC1D2000BC1D20001D
:100E0000024B01461868FFF79FBF00BF0C0200208D
:100E1000F8B50E461446054618B183690BB900F0C3
:100E2000A7F9214B9C422AD16C68A369A360A389CE
:100E30001A072ED5236963B323692068F6B2C01A56
:100E400063693746834204DC2146284600F026F9D0
:100E500028BBA3680130013BA36023685A1C2260B1
:100E60001E706369834204D0A389DB0719D50A2E5B
:100E700017D12146284600F011F990B10FE00B4B35
:100E80009C4201D1AC68D0E7094B9C4208BFEC689A
:100E9000CBE72146284600F00DF80028CCD04FF0D3
:100EA000FF373846F8BD00BFDC1D2000FC1D2000C8
:100EB000BC1D2000324B70B51D6806460C4625B19E
:100EC000AB6913B9284600F053F92E4B9C420FD161
:100ED0006C68B4F90C309AB215072CD4D00611D432
:100EE0000922326043F04003A3814FF0FF303EE01F
:100EF000254B9C4201D1AC68EBE7244B9C4208BFD8
:100F0000EC68E6E7510712D5616B41B104F1440387
:100F1000994202D0304600F021FA00236363A3898E
:100F200023F02403A3810023636023692360A38942
:100F300043F00803A38123694BB9A38903F4207309
:100F4000B3F5007F03D02146304600F0BFF9A289F7
:100F500012F001030CD00023A36063695B42A3611C
:100F6000236953B9B4F90C3013F08000BAD170BDC5
:100F7000920758BF6369A360F2E70020F7E700BF5C
:100F80000C020020DC1D2000FC1D2000BC1D2000E8
:100F90008A892DE9F041054610070C4658D44B6864
:100FA000002B05DC0B6C002B02DC0020BDE8F0817F
:100FB000E66A002EF9D0002312F480522F68216ACD
:100FC0002B6032D0606DA3895A0705D56368C01ABB
:100FD000636B0BB1236CC01A00230246E66A216AD8
:100FE0002846B047431CA38906D129681D2948D843
:100FF000294ACA40D60744D5002262602269D90432
:10100000226004D5421C01D12B6803B96065616B75
:101010002F600029C9D004F14403994202D0284628
:1010200000F09CF900206063C0E701232846B04728
:10103000411CC8D12B68002BC5D01D2B01D0162B0D
:1010400001D12F60B1E7A38943F04003A381ADE74D
:101050000F69002FA9D0930718BF00230E6808BF9F
:101060004B69A6EB07080F608B60B8F1000F9CDDA1
:1010700043463A46216A2846A66AB047002806DC5D
:10108000A38943F04003A3814FF0FF308EE707446C
:10109000A8EB0008E9E700BF0100402038B50B6964
:1010A00005460C46DBB118B183690BB900F060F856
:1010B0000C4B9C4209D16C68B4F90C307BB12146D1
:1010C0002846BDE83840FFF763BF074B9C4201D17B
:1010D000AC68F1E7054B9C4208BFEC68ECE70020E8
:1010E00038BD00BFDC1D2000FC1D2000BC1D200001
:1010F000002310B50446C0E9003383608181436654
:10110000C281C0E904338361194608225C3000F0D3
:101110001DF9054B24626362044BA362044BE36236
:10112000044B236310BD00BF351A2000571A20005E
:101130008F1A2000B31A2000014900F085B800BFC3
:101140009D10200070B568254A1E55430E4605F1D6
:10115000740100F04FF9044640B10021C0E90016C7
:101160000C30A06005F1680200F0F0F8204670BD78
:10117000836910B5044633BBC0E912330365124BD3
:10118000124A1B688262984204BF0123836100F007
:101190001FF86060204600F01BF8A060204600F0B9
:1011A00017F80022E06004216068FFF7A1FF012228
:1011B0000921A068FFF79CFF02221221E068FFF7D7
:1011C00097FF0123A36110BDB81D20003911200035
:1011D000F8B51B4B07461E68B36913B93046FFF7D5
:1011E000C7FF4836D6E90134013B03D5336833B134
:1011F0003668F7E7B4F90C506DB16834F4E70421B0
:101200003846FFF79FFF30600028F1D10C230446D9
:101210003B602046F8BD0B4B6566C4E90055A560F0
:10122000C4E90335C4E905550822294604F15C00E8
:1012300000F08CF8C4E90D55C4E91255E9E700BF88
:10124000B81D20000100FFFF2DE9F84380468946C4
:10125000002600F1480414B93046BDE8F883D4E90B
:101260000175013F01D52468F5E7AB89012B07D94A
:10127000B5F90E30013303D029464046C84706432E
:101280006835EEE770B50E46B1F90E1096B000293C
:1012900014461D4607DA00232B60B3891A0610D4C2
:1012A0004FF480630EE06A46FFF726F80028F2DB71
:1012B000019A02F47042A2F500535A425A412A6040
:1012C000EEE740230020236016B070BD8B8973B514
:1012D0009D0706460C4607D504F1470323602361AA
:1012E0000123636102B070BD01AB6A46FFF7CAFF1C
:1012F00000990546304600F07DF848B9B4F90C3045
:101300009A05EFD423F0030343F00203A381E3E73C
:101310000D4BB362A389206043F08003A381009B3F
:1013200020616361019B5BB1B4F90E103046FEF79A
:10133000E8FF28B1A38923F0030343F00103A3814D
:10134000A3891D43A581CDE739112000034602443E
:10135000934200D1704703F8011BF9E738B5054601
:10136000002943D051F8043C0C1F002BB8BFE418EF
:1013700000F0B1FB1E4A1368104633B96360146075
:101380002846BDE8384000F0A7BBA3420BD921682E
:101390006218934201BF1A685B685218226063604A
:1013A0000460EDE713465A680AB1A242FAD91968F7
:1013B0005818A0420BD12068014458188242196085
:1013C000DED110685268014419605A60D8E702D92A
:1013D0000C232B60D4E7206821188A4201BF1168D2
:1013E00052680918216062605C60C9E738BD00BFBF
:1013F000580A002070B5CD1C25F0030508350C2DCA
:1014000038BF0C25002D064601DBA94203D90C2369
:101410003360002070BD00F05EFB214A1468214655
:1014200091B9204C23681BB93046FEF735FF206088
:1014300029463046FEF730FF431C24D10C233046AA
:10144000336000F049FBE4E70B685B1B18D40B2BFF
:101450000FD90B60CC18CD50304600F03DFB04F1A5
:101460000B00231D20F00700C31AD3D05A42E250CC
:10147000D0E74B688C4216BF636013600C46EBE705
:101480000C464968CCE7C41C24F00304A04205D0F4
:10149000211A3046FEF700FF0130CFD02560DBE790
:1014A000580A00205C0A0020936810B4013B002B0E
:1014B000936007DA9469A34201DB0A2902D110BCC8
:1014C000FFF7A6BC1368581C10601970084610BCC2
:1014D0007047F8B506460F461446D518AC4201D100
:1014E000002007E03A4614F8011B3046FFF7DCFF06
:1014F000431CF3D1F8BD00002DE9F04F0C469DB020
:1015000017461D46064618B183690BB9FFF730FE32
:101510007C4B9C4258D17468A38918075ED5236917
:10152000002B5BD00023099320238DF82930302332
:101530004FF0010B8DF82A300395B846454615F853
:10154000013B0BB1252B54D1B8EB070A0BD0534606
:101550003A4621463046FFF7BCFF013000F0C2801A
:10156000099B5344099398F80030002B00F0BA808F
:1015700000234FF0FF32CDE90523049307938DF844
:1015800053301A93A846052218F8011B5E4800F054
:1015900094FA049B78BBD90644BF20228DF85320CF
:1015A0001A0744BF2B228DF853202A782A2A2AD0E2
:1015B000A84600200A25079A414611F8013B303B16
:1015C000092B69D960B324E0504B9C4201D1B46827
:1015D000A2E74F4B9C4208BFF4689DE72146304686
:1015E000FFF768FC00289DD04FF0FF301DB0BDE82C
:1015F000F08FA846A2E7444A4546801A0BFA00F04D
:1016000018430490BEE7039A111D12680391002A43
:1016100001DB079204E0524243F002030792049375
:1016200098F800302E2B0ED198F801302A2B38D1A3
:10163000039B08F102081A1D1B680392002BB8BF18
:101640004FF0FF330593334D032298F800102846DE
:1016500000F033FA40B14023401B03FA00F0049B32
:1016600008F101080343049398F8001006222A4861
:1016700008F101078DF8281000F01FFA002837D074
:10168000264B1BBB039B073323F00703083303934D
:10169000099B4B44099350E705FB02320120884621
:1016A0008AE700230A25194608F1010805934046F8
:1016B00010F8012B303A092A03D9002BC3D0059129
:1016C000C1E705FB012101238046F0E703AB00934E
:1016D0002246134B04A93046AFF30080B0F1FF3F20
:1016E0008146D5D1A3895B063FF57EAF09987DE79A
:1016F00003AB009322460A4B04A9304600F088F859
:10170000ECE700BFDC1D20001C1E2000FC1D20009B
:10171000BC1D2000221E2000261E2000000000000C
:10172000D31420002DE9F04791461F468A680B69C3
:1017300006469342B8BF1346C9F8003091F84320DB
:101740000C46DDF8208012B10133C9F8003023685F
:10175000990642BFD9F800300233C9F80030256835
:1017600015F0060507D104F1190AE368D9F800203D
:101770009B1AAB4229DC94F843302268003318BF2F
:10178000012392062ED404F1430239463046C04765
:10179000013021D02368E56803F00603042B18BF4D
:1017A0000025D9F800204FF0000908BFAD1AA36842
:1017B000226908BF25EAE5759342C4BF9B1AED185C
:1017C0001A344D451AD1002008E00123524639460B
:1017D0003046C047013003D14FF0FF30BDE8F087FD
:1017E0000135C2E73020E11881F843005A1C94F813
:1017F00045102244023382F84310C4E701232246F5
:1018000039463046C0470130E6D009F10109D8E732
:101810002DE9F04301F1430C0C46097E85B06E2999
:101820001746064698460C9A00F0B38022D86329E2
:1018300036D00AD8002900F0B980582900F08380FA
:1018400004F1420584F8421032E0642901D069298C
:10185000F6D120681368050603F104012AD51B6838
:101860001160002B03DA2D225B4284F843206F487D
:101870000A2239E0732900F09D8008D86F2920D012
:101880007029DDD1236843F02003236003E075292C
:1018900017D07829D4D17823654884F8453055E0AD
:1018A000136804F14205191D1B68116084F8423069
:1018B00001238CE01B6810F0400F116018BF1BB2B1
:1018C000CFE713682568181D1060280601D51B682E
:1018D00002E06806FBD51B886F2914BF0A22082284
:1018E0005248002184F843106568002DA560C0F2BD
:1018F0009580216821F004012160002B3DD1002D4D
:1019000040F08E806546082A0BD12368DB0708D596
:10191000236962689A42DEBF302305F8013C05F175
:10192000FF35ACEB05032361CDF800803B4603AAED
:1019300021463046FFF7F6FE01304DD14FF0FF3023
:1019400005B0BDE8F083394884F845101368216874
:101950001D1D1B6815600A060BD5CA0744BF41F060
:10196000200121601BB9226822F02002226010228F
:10197000B7E74D0648BF9BB2EFE76546B3FBF2F110
:1019800002FB1133C35C05F8013D0B460029F5D17C
:10199000B9E713682568181D6169106028061B687F
:1019A00001D5196002E06A06FBD51980002365465F
:1019B0002361B9E71368191D11601D686268002171
:1019C000284600F07AF808B1401B60606368236124
:1019D000002384F84330A7E723692A463946304676
:1019E000C0470130AAD023689B0713D4E068039B4B
:1019F0009842B8BF1846A3E701234A463946304605
:101A0000C04701309AD00135E368039A9B1AAB4274
:101A1000F2DCEBE7002504F11909F5E7002BACD166
:101A2000037804F1420584F842306CE72D1E200053
:101A30003E1E200010B50C46B1F90E10FEF74AFC10
:101A40000028ABBF636DA3891B1823F48053ACBF80
:101A50006365A38110BD2DE9F0411F468B890546C2
:101A6000DB050C46164605D502230022B1F90E10FF
:101A7000FEF73DFCA389324623F48053A381B4F9D9
:101A80000E103B462846BDE8F041FEF727BC10B5D6
:101A90000C46B1F90E10FEF72AFC431CA38915BFB2
:101AA000606523F4805343F48053A38118BFA3815E
:101AB00010BDB1F90E10FEF715BC10B5C9B2024445
:101AC0009042034601D1002303E01C7801308C4290
:101AD000F6D1184610BD7047704742555320464115
:101AE000554C542048414E444C45520044454255C3
:101AF00047204D4F4E2048414E444C4552004455DE
:101B00004D4D592048414E444C4552000A495352CC
:101B100020737461636B206F766572666C6F776596
:101B20006400537461636B20706F696E746572201A
:101B3000636F727275707465642C2072657365745E
:101B400020746F20746F70206F6620737461636BF4
:101B5000000A436F6E74657874206265666F726503
:101B600020686172646661756C743A00202020728E
:101B7000303A2030782530386C780A2020207231B5
:101B80003A2030782530386C780A20202072323A9A
:101B90002030782530386C780A20202072333A20A3
:101BA00030782530386C780A0020207231323A20A3
:101BB00030782530386C780A2020206C723A20303A
:101BC000782530386C780A20202070633A203078ED
:101BD0002530386C780A20207073723A20307825CE
:101BE00030386C780A0A004653522F4641523A0068
:101BF00020434653523A2030782530386C780A001A
:101C000020484653523A2030782530386C780A0004
:101C100020444653523A2030782530386C780A00F8
:101C200020414653523A2030782530386C780A00EB
:101C300020424641523A2030782530386C780A00EC
:101C40004D4D4641523A2030782530386C780A00A4
:101C50004D697363004558435F5245543A203078CC
:101C60002530386C780A00417474656D7074696E43
:101C70006720746F207265636F6E7374727563741E
:101C800020737461746520666F7220646562756785
:101C900067696E672E2E2E00496E204744423A0A2D
:101CA0002020736574202470633D3078256C780A99
:101CB00020206672616D6520300A202062740A005F
:101CC0000A49535220737461636B206F76657266A4
:101CD0006C6F776564206279206174206C65617334
:101CE000742025642062797465732E0A004841527D
:101CF00044204641554C542048414E444C455200E6
:101D00004D454D204D414E4147452048414E444CA4
:101D10004552004E4D492048414E444C45520055D5
:101D200053414745204641554C542048414E444C70
:101D30004552004641494C45442041535345525475
:101D4000494F4E2E0025700A002A2A2A2052494F58
:101D500054206B65726E656C2070616E69633A0A1F
:101D600025730A0A002A2A2A2068616C7465642E89
:101D70000A0A006D61696E28293A20546869732047
:101D800069732052494F5421202856657273696F38
:101D90006E3A20323031392E30372D646576656CDD
:101DA0002D3637392D673736313533290A006964C6
:101DB0006C65006D61696E0010020020000000007B
:101DC0000000000000000000000000000000000013
:101DD0000000000000000000000000000000000003
:101DE00000000000000000000000000000000000F3
:101DF00000000000000000000000000000000000E3
:101E000000000000000000000000000000000000D2
:101E1000000000000000000000000000232D302B17
:101E20002000686C4C0065666745464700303132DB
:101E30003334353637383941424344454600303132
:101E40003233343536373839616263646566000091
:101E5000640A0020AE1D2000B31D200010020020E7
:101E600000000000DC1D2000FC1D2000BC1D200027
:101E70000000000000000000000000000000000062
:101E80000000000000000000000000000000000052
:101E90000000000000000000000000000000000042
:101EA0000000000000000000000000000000000032
:101EB0000000000000000000000000000000000022
:041EC00028210000D5
:101EC400FFFFFFFFFFFFFFFFFFFFFFFFFFFFFFFF1E
:101ED400FFFFFFFFFFFFFFFFFFFFFFFFFFFFFFFF0E
:101EE400FFFFFFFFFFFFFFFFFFFFFFFFFFFFFFFFFE
:101EF400FFFFFFFFFFFFFFFFFFFFFFFFFFFFFFFFEE
:020000040021D9
:041EC000FFFFFFFF22
:101EC400FFFFFFFFFFFFFFFFFFFFFFFFFFFFFFFF1E
:101ED400FFFFFFFFFFFFFFFFFFFFFFFFFFFFFFFF0E
:101EE400FFFFFFFFFFFFFFFFFFFFFFFFFFFFFFFFFE
:101EF400FFFFFFFFFFFFFFFFFFFFFFFFFFFFFFFFEE
:020000040022D8
:041EC000FFFFFFFF22
:101EC400FFFFFFFFFFFFFFFFFFFFFFFFFFFFFFFF1E
:101ED400FFFFFFFFFFFFFFFFFFFFFFFFFFFFFFFF0E
:101EE400FFFFFFFFFFFFFFFFFFFFFFFFFFFFFFFFFE
:101EF400FFFFFFFFFFFFFFFFFFFFFFFFFFFFFFFFEE
:020000040023D7
:041EC000FFFFFFFF22
:101EC400FFFFFFFFFFFFFFFFFFFFFFFFFFFFFFFF1E
:101ED400FFFFFFFFFFFFFFFFFFFFFFFFFFFFFFFF0E
:101EE400FFFFFFFFFFFFFFFFFFFFFFFFFFFFFFFFFE
:101EF400FFFFFFFFFFFFFFFFFFFFFFFFFFFFFFFFEE
:020000040024D6
:041EC000FFFFFFFF22
:101EC400FFFFFFFFFFFFFFFFFFFFFFFFFFFFFFFF1E
:101ED400FFFFFFFFFFFFFFFFFFFFFFFFFFFFFFFF0E
:101EE400FFFFFFFFFFFFFFFFFFFFFFFFFFFFFFFFFE
:101EF400FFFFFFFFFFFFFFFFFFFFFFFFFFFFFFFFEE
:020000040025D5
:041EC000FFFFFFFF22
:101EC400FFFFFFFFFFFFFFFFFFFFFFFFFFFFFFFF1E
:101ED400FFFFFFFFFFFFFFFFFFFFFFFFFFFFFFFF0E
:101EE400FFFFFFFFFFFFFFFFFFFFFFFFFFFFFFFFFE
:101EF400FFFFFFFFFFFFFFFFFFFFFFFFFFFFFFFFEE
:020000040026D4
:041EC000FFFFFFFF22
:101EC400FFFFFFFFFFFFFFFFFFFFFFFFFFFFFFFF1E
:101ED400FFFFFFFFFFFFFFFFFFFFFFFFFFFFFFFF0E
:101EE400FFFFFFFFFFFFFFFFFFFFFFFFFFFFFFFFFE
:101EF400FFFFFFFFFFFFFFFFFFFFFFFFFFFFFFFFEE
:020000040027D3
:041EC000FFFFFFFF22
:101EC400FFFFFFFFFFFFFFFFFFFFFFFFFFFFFFFF1E
:101ED400FFFFFFFFFFFFFFFFFFFFFFFFFFFFFFFF0E
:101EE400FFFFFFFFFFFFFFFFFFFFFFFFFFFFFFFFFE
:101EF400FFFFFFFFFFFFFFFFFFFFFFFFFFFFFFFFEE
:10FFD400FFFFFFF30000000000002000FFFFFFFF11
:10FFE400FFFFFFFFFFFFFFFFFFFFFFFFFFFFFFFF1D
:0CFFF400FFFFFFFFFFFFFFFFFFFFFFFF0D
:04000005002005BD15
:00000001FF
